:020000040000fa
:10000000f0ff03203d0c00002b1300002d13000017
:10001000311300003313000035130000000000000e
:100020000000000000000000000000002913000094
:100030002f13000000000000291300002913000006
:1000400029130000291300002913000029130000c0
:1000500029130000291300002913000029130000b0
:10006000291300002913000029130000c511000006
:100070002913000029130000291300002913000090
:100080002913000029130000291300002913000080
:100090002913000029130000291300002913000070
:1000a0002913000029130000291300002913000060
:1000b0002913000029130000291300002913000050
:1000c0002913000029130000291300002913000040
:1000d0002913000029130000291300002913000030
:1000e0002913000029130000000000000000000098
:1000f000000000002913000029130000291300004c
:1001000029130000291300002913000029130000ff
:1001100029130000291300002913000029130000ef
:1001200029130000291300002913000029130000df
:1001300029130000291300002913000029130000cf
:1001400029130000291300002913000029130000bf
:100150002913000029130000000000000000000027
:10016000000000000000000000000000000000008f
:10017000000000000000000039050000b906000082
:10018000291300002913000029130000291300007f
:1001900000000000291300002913000029130000ab
:1001a000291300002913000029130000291300005f
:1001b000291300002913000029130000291300004f
:1001c000291300002913000029130000291300003f
:1001d000291300002913000029130000291300002f
:1001e000291300002913000029130000291300001f
:1001f000291300002913000029130000291300000f
:100200002913000000000000000000002913000076
:1002100029130000291300002913000029130000ee
:1002200029130000291300002913000029130000de
:1002300029130000291300002913000029130000ce
:1002400029130000291300002913000029130000be
:1002500029130000291300002913000029130000ae
:020000040000fa
:10026000f8b500bff8bc08bc9e467047a11000005e
:10027000f8b500bff8bc08bc9e4670477d10000072
:020000040000fa
:10028000f0b583b0a54b1b78002b00f03b81a34b4e
:1002900000221a70a24b1b7b082b05d1a04c221dfb
:1002a00004f10c05002103e000f028ff2de11946c0
:1002b00012f8010b80ea0103dbb2aa42f7d18842af
:1002c00019d1974b1b79974a12789a4216d0954ac2
:1002d0001370934b03f11402191d03c982e8030044
:1002e0005b79013b092b12d8dfe803f00b29333c83
:1002f000546c839ab1ca00f001ff06e100f0fefee3
:1003000003e1894bd3f80120854bc3f81720874bb5
:1003100004f11b00002113f8012b51408342fad154
:100320007f4ad176804b187800230093143208213d
:1003300000f5007000f0e2fb00f0e0fee5e07a4b33
:10034000d3f80510764ac2f8171000225a719a7134
:10035000dde7734a744b53f8091fc2f816101b7976
:100360009376d4e76e4b9b796f4a927d9a4209d976
:1003700002336d4a02eb8303d3f80620684bc3f8bf
:100380001720c4e7664b00225a7504229a75012291
:10039000da75bce7624b9b79634ad27e9a4209d9ef
:1003a0000433614a02eb8303d3f807205c4bc3f8a4
:1003b0001720ace75a4b00225a7505229a75012284
:1003c000da75a4e7564b9b79574a92f840209a4237
:1003d00007d90733544a52f82320514bc3f817204a
:1003e00095e74f4b00225a7506229a750122da755d
:1003f0008de74b4b9b794c4ad27e9a4208d9484aaa
:10040000d2f81710484a02eb8303c3f817107ee7af
:10041000434b00225a7507229a750122da7576e756
:100420003f4b9b79404a92f840209a4207d90733c4
:100430003b4ad2f817103c4a42f8231067e7384b82
:1004400000225a7508229a750122da755fe7364d47
:1004500005f1180305f13c07354ec5f1ff2505f5fb
:100460007f05e835ea18316853f8040f8850bb421d
:10047000f8d12f4b1b684ff05a32c3f8fc2346e7e4
:10048000294b5e6c2eb3264b987928b1264b9b7a6c
:10049000012b2ed0244b5872234d0423ab72002322
:1004a000eb722b731e498b7a00934b7a0a7ac979c7
:1004b000b047ab7a032b03d90322aa7205226a73d1
:1004c000174a194b53f8091fc2f816101b79937677
:1004d0001de7134a91795972032199720021d9724b
:1004e000197304215973d3f80930c2f81630917684
:1004f0000de70b4b0322da7500221a765a76012299
:100500009a7604e70b4b1b780bb903b0f0bd094b8f
:1005100000221a7000f0f2fdf7e700bf5f00002034
:100520002c0100205c000020000000204001002081
:08053000540000205e000020d1
:020000040000fa
:100538002de9f04784b04ff084431c6d14f0007f20
:100548001cbf4ff000721a6514f0010f62d04ff013
:10055800844301221a655a6d22f001025a65d3f8c4
:10056800a43013f07f0f55d04ff08443d3f8a45034
:10057800c5f305252b014a4ad268d718d15811f07e
:10058800804fd15805eb8500464e56f8200014bf21
:1005980021f06041c1f38a410160d2587b6813f4ad
:1005a800001f02d112f0005f71d105eb85033d4aaf
:1005b80002eb83031b6900221a707e683a4b0fcb4b
:1005c8000df1100c0ce90f00c6f30346664416f84b
:1005d80010ac344e4fea850808eb050906eb89098b
:1005e800524607f10801d9f8040000f01dfed9f8b9
:1005f800083083f800a0d9f80c300bb17a681a805b
:100608004ff08443c3f8a850284b1b6813b1274afe
:100618005068984714f4007f20d04ff084434ff47b
:1006280000721a655a6d22f400725a65d3f8d82000
:10063800d3f8e03013f0010f0ad012f0010f07d001
:100648004ff08442d2f8e03023f00103c2f8e030e2
:10065800164b9b6913b1154ad069984714f4006f7b
:1006680012d04ff084424ff400631365d2f8c430bf
:10067800c3f30423d2f8c420c2f30442934203d242
:100688000133dbb29a42fbd104b0bde8f08705eb39
:100698008503044a02eb83031b6901221a708ce765
:1006a800dc00002004010020c01200006c010020c2
:020000040000fa
:1006b8002de9f04784b0574b1c6d14f0007f1cbf28
:1006c8004ff000721a6514f0010f5fd0514b0122f0
:1006d8001a655a6d22f001025a65d3f8a43013f056
:1006e8007f0f53d04b4bd3f8a450c5f305252b01ee
:1006f800494ad268d718d15811f0804fd15805eb24
:100708008500464e56f8200014bf21f06041c1f321
:100718008a410160d2587b6813f4001f02d112f09d
:10072800005f6dd105eb85033c4a02eb83031b692f
:1007380000221a707e683a4b0fcb0df1100c0ce9b1
:100748000f00c6f30346664416f810ac334e4fea62
:10075800850808eb050906eb8909524607f10801e7
:10076800d9f8040000f060fdd9f8083083f800a03b
:10077800d9f80c300bb17a681a80264bc3f8a85008
:10078800284b1b6813b1274a5068984714f4007f18
:100798001ed0204b4ff400721a655a6d22f4007275
:1007a8005a65d3f8d820d3f8e03013f0010f09d0f8
:1007b80012f0010f06d0174ad2f8e03023f00103f7
:1007c800c2f8e030174b9b6913b1164ad0699847b5
:1007d80014f4006f11d00f4a4ff400631365d2f878
:1007e800c430c3f30423d2f8c420c2f304429342b2
:1007f80003d20133dbb29a42fbd104b0bde8f087e3
:1008080005eb8503054a02eb83031b6901221a7075
:1008180090e700bf000400428c000020b4000020d4
:08082800b01200004c01002099
:020000040000fa
:10083000424b42f20e229a821a46d36813f0010ffd
:10084000fbd03e4b00221a7403f500633c4ada6287
:100850001a46536813f0200ffbd13a4b3a4a9a627a
:100860001a46536813f0100ffbd1364b374a1a6300
:100870001a46536813f0400ffbd1324b4222c3f8a3
:1008800084201a46d2f8843013f0400ffad0304b4f
:1008900000229a6377225a631a46d36b13f0040f2f
:1008a000fbd12b4b022283f830201a46d36b13f076
:1008b000020ffbd1264a136c03f00303032bfad17a
:1008c000244b01225a711a46d37813f0010ffbd042
:1008d0001c4b214a1a621a46536813f0040ffbd1cd
:1008e000184b1e4a5a621a46536813f0080ffbd180
:1008f000144b4322c3f8a4201a46d2f8a43013f0b4
:10090000400ffad00f4b4422c3f8ec201a46d2f81d
:10091000ec3013f0400ffad00a4b4422c3f8f02019
:100920001a46d2f8f03013f0400ffad0094b6ff0ae
:100930007f421a6144f2ff725a617047001400400e
:1009400004012000001c00400601300006010200e6
:1009500000100040000800400701010007010200ec
:020000040000fa
:100960008c0100201c00000000000000600000203e
:100970002c000000000000002c01002020000000de
:1009800000000000000000204800000000000000ff
:100990005c00002001000000000000005d0000205d
:1009a00001000000000000005e00002001000000c7
:1009b000000000005f0000200100000000000000b7
:1009c000540000200400000001000000000000446a
:1009d0004c01002020000000000000008c000020de
:1009e0002800000000000000b400002028000000e3
:1009f000000000006c01002020000000000000004a
:100a0000dc0000202800000000000000040100209d
:100a10002800000000000000a801002001000000e4
:100a200000000000480000200c0000000000000052
:100a3000a901002001000000000000005800002073
:100a400004000000000000000000000000000000a2
:020000040000fa
:100a5000f8b50746244b1e68244c0225257024480f
:100a600000f0a2f8012262700023a370e270a57268
:100a7000e372237363736371a371e3712372a575ca
:100a8000e27606f00f03934208d0184b002283f859
:100a90004020164b5f6400f031fbf8bdc6f3021630
:100aa0009642f2d1092284f8402000f019fc002877
:100ab000fbd1104b1868d0f8fc33b3f15a3f09d082
:100ac0000a4a02f11c034032002143f8041b9342fe
:100ad000fbd1dee7031f084a203053f8041f42f819
:100ae000041f8342f9d1d4e70440800000000020b5
:0c0af000600000205400002018000020ce
:020000040000fa
:100afc00f8b59df818c0bcf1010f01d90020f8bd64
:100b0c004ff08443d3f8c43013f4001f3fd14ff09f
:100b1c008443d3f8c440c4f3044426011d4b9f699d
:100b2c00bd19b0f5006f26bf20f0604040f080404a
:100b3c008004b8510b46082928bf082318046860a4
:100b4c001cf0fd0f1ed111461a4605f1080000f0ed
:100b5c0069fb114a13780133dbb213706a6842eafd
:100b6c00036343f400036b60012000fa04f44ff0bc
:100b7c008443c3f8e040c3f8d0405a6d42f400728d
:100b8c005a65bce7bb5943f00053bb51e1e7002069
:0c0b9c00b5e700bfdc000020a80100202d
:020000040000fa
:100ba80010b504462c22002100f0a6fb4ff0844328
:100bb80001229a611a46936913f0010ffbd04ff096
:100bc80084439a6942f002029a611849cc60a2b241
:100bd80042f0004242f48032c3f8a02004f110022f
:100be8008a6192b242f08072c3f8c02004f12002f8
:100bf800ca6192b242f48032c3f8f02004f12802ac
:100c08000a620b49a16292b242f48032c3f884208e
:100c18009a6922f4804222f0010242f480429a61e9
:100c28001a46936913f0010ffbd110bddc000020b8
:040c38001102110a8a
:020000040000fa
:100c3c0008b51b4b98471b4b9847eff3108172b6c6
:100c4c00194ad2f8883043f47003c2f88830bff3e5
:100c5c004f8fbff36f8f01b962b6144c20236360c2
:100c6c0000f0faf8124b23f07f030f4a9360114bfc
:100c7c009847a36823f00103a3602346da6812f0b7
:100c8c00010ffbd1094b5a6842f004025a60012251
:100c9c009a60094b9847094b984700f021f9fee7f9
:100cac00371300003713000000ed00e00060004136
:100cbc0000000000f10f0000371300003713000094
:020000040000fa
:100ccc0038b51d4b01229a611a46936913f0010f36
:100cdc00fbd0194b9a6942f002029a61174ada6109
:100cec002b22c3f8802001221a629a6922f48042d6
:100cfc0022f0010242f480429a611a46936913f081
:100d0c00010ffbd10c4b00249c650122da654ff0de
:100d1c0000725a650a4d2c606c60ac60282221462a
:100d2c00084800f0e7faec602c616c61ac61ec6196
:100d3c002c626c6238bd00bf00040042000502004a
:080d4c008c000020b40000201f
:020000040000fa
:100d540038b54ff0844301229a611a46936913f01f
:100d6400010ffbd04ff084439a6942f002029a616a
:100d7400164ada612b22c3f8802001221a629a698a
:100d840022f4804222f0010242f480429a611a461f
:100d9400936913f0010ffbd14ff0844300249c6549
:100da4000122da654ff000725a65094d2c606c60bf
:100db400ac6028222146074800f0a0faec602c61c0
:100dc4006c61ac61ec612c626c6238bd00050200a0
:080dd400dc00002004010020f6
:020000040000fa
:100ddc0010b41f4b1f4a1a60402183f8431006229f
:100dec0083f8442083f8452083f84b1083f84e1089
:100dfc0083f84f2083f8531083f8542083f8552040
:100e0c00012083f8560083f8570083f85b20882470
:100e1c0083f83b40a4f1ff44583cc3f8804083f86e
:100e2c00c02083f8c12083f8c22083f8c32083f844
:100e3c00c41083f8cc0083f8cd0083f8ce2083f85f
:100e4c00d710772283f8b6205df8044b704700bfab
:080e5c00008000410448080079
:020000040000fa
:100e64001e4b1f4a9342f0b438bf002103d203f84b
:100e7400011b9342fbd11b4ad2e9000150ea010352
:100e84004ff0000610d09468034602f10c076cb9c9
:100e940021b1014403f8016b9942fbd13a46d2e9ee
:100ea400000150ea0103eed1f0bc704759b101f1e1
:100eb4000c030c38801a1a443b461c1813f8015bc7
:100ec40025709342f9d111f0030318bf012303ebfa
:100ed400910107eb81073a46e1e700bf00000020db
:080ee40000000020600900007d
:020000040000fa
:100eec0008b5002000f07cf90021164800f00afa41
:100efc0000f0a6f900f0b0f900f0f4f900f0c1f937
:100f0c00114c124d00f004fa237813f0020f12d199
:100f1c00237813f0040f1cbf23f0040323702378f1
:100f2c0013f0010feed023f0010323704ff00043b8
:100f3c00c5f89c30e6e723f00203237000f0ecf9cf
:100f4c00e6e700bf35110000a90100200080004138
:020000040000fa
:100f5c00f0b59df81440ecb94ff0844cdcf8a4507b
:100f6c00c5f305250c4cae007719bf0004eb070e3a
:100f7c00e051cef80420cef80810cef80c30069bc9
:100f8c00cef81030dcf8543043f00103ccf8543078
:0c0f9c00012000e00020f0bd0401002056
:020000040000fa
:100fa8000f4ad36823f4e0631b041b0c43f0bf63b0
:100fb80043f40033d360bff35f8f62b6094be0227e
:100fc80083f80b234ff40061196083f84e234ff424
:100fd8008041996083f84f234ff400429a6070472c
:080fe80000ed00e000e100e073
:020000040000fa
:100ff00070b50d4d0d4c641ba4100026a64209d1fe
:101000000b4d0c4cfff72cf9641ba4100026a642d4
:1010100005d170bd55f8043b98470136eee755f809
:10102000043b98470136f2e76c0200006c020000b6
:081030006c02000070020000d8
:020000040000fa
:101038000f4b01221a801a46136913f0010ffbd1d6
:101048000b4b4ff401421a8000221a621a461369a8
:1010580013f0200ffbd1064b00225a621a4613697f
:1010680013f0400ffbd1024b83225a81704700bf17
:041078000024004010
:020000040000fa
:10107c0010b5054c237833b9044b13b10448aff3c6
:10108c0000800123237010bd8c01002000000000a3
:10109c000000000008b5034b1bb103490348aff334
:1010ac00008008bd0000000090010020000000003e
:020000040000fa
:1010bc004ff08443586c20f4605020f0180040042a
:1010cc00400c9b6913f0010f11d04ff084429369cf
:1010dc0043f002039361936923f4804323f00103eb
:1010ec0043f480439361936913f0010ffbd1704774
:020000040000fa
:1010fc0000b583b000221146084800f085f8084876
:10110c00084b01930023009300f10e03021d00f124
:10111c000c01fff71dff03b05df804fb9d110000ef
:08112c002c0100205d000020f1
:020000040000fa
:1011340010f0010f04d00b4a137843f0020313702c
:1011440010f0020f04d0074a137843f0040313701d
:1011540010f0800f04d0034a137843f00103137096
:08116400704700bfa901002043
:020000040000fa
:10116c000a4b01221a601a46136913f0010ffbd1c6
:10117c00064b40f214721a6001221a731a7733224a
:10118c009a721a461369002bfcd170470038004044
:020000040000fa
:10119c0008b5fff78dff10f0070005d0072803d026
:1011ac00034b01221a7002e0024b01221a7008bd97
:0811bc005e0000205f0000202e
:020000040000fa
:1011c40008b5074a908980b2064b58604cf2ff314b
:1011d40091811b6813b1034a9168984708bd00bf09
:0811e400002400404800002037
:020000040000fa
:1011ec0008b500f06ff8fff7f3fdfff71bfb00f0fd
:1011fc0094f8fff765fdfff7a7fdfff717fffff763
:08120c00affffff7cbfe08bda8
:020000040000fa
:1012140010b428b1044b43f8320003ebc203596005
:0c1224005df8044b704700bf6c01002017
:020000040000fa
:101230000a44914200f1ff3300d1704710b511f814
:0c124000014b03f8014f9142f9d110bda1
:020000040000fa
:10124c00044a138843f002031380136913f0020f4e
:08125c00fbd1704700240040a3
:020000040000fa
:10126400044a136843f002031360136913f0020f76
:08127400fbd170470038004077
:020000040000fa
:10127c0008b510b900f00ef808bd042000f002f813
:02128c00fae77f
:020000040000fa
:02128e007047a7
:020000040000fa
:10129000024b03229a725873704700bf000000206f
:020000040000fa
:1012a000024b03229a7206225a73704700000020f4
:020000040000fa
:1012b0000001020304050607080c10141820304032
:1012c0000001020304050607080c10141820304022
:020000040000fa
:1012d000024b40f204521a80704700bf00400041a8
:020000040000fa
:1012e000024bd86ac0f38000704700bf0040004145
:020000040000fa
:1012f00008b50248fff7acfb08bd00bf7d12000037
:020000040000fa
:1013000002440346934200d1704703f8011bf9e7fa
:020000040000fa
:0c131000014b18609960704748000020f5
:020000040000fa
:08131c0008b5fef7afff08bda4
:020000040000fa
:02132400704710
:020000040000fa
:0213260070470e
:020000040000fa
:02132800fee7de
:020000040000fa
:02132a00fee7dc
:020000040000fa
:02132c00fee7da
:020000040000fa
:02132e00fee7d8
:020000040000fa
:02133000fee7d6
:020000040000fa
:02133200fee7d4
:020000040000fa
:02133400fee7d2
:020000040000fa
:021336007047fe
:020000040000fa
:0200000400807a
:044000003912003c35
:020000040000fa
:0200000400807a
:044004009100a82a55
:020000040000fa
:0200000400807a
:04400800ffffffffb8
:00000001FF
